:100000000C942A000C9434000C9434000C943400AA
:100010000C9434000C9434000C9434000C94340090
:100020000C9434000C9434000C9434000C94340080
:100030000C9434000C9434000C9434000C94340070
:100040000C9434000C9434000C9434000C94340060
:100050000C94340011241FBECFE5D4E0DEBFCDBF29
:100060000E9436000C9465000C940000CF93DF933F
:10007000CDB7DEB787E390E0FC01208187E390E015
:100080002160FC0120838EE490E0FC0120818EE45D
:1000900090E02160FC0120838CE490E0FC018081F1
:1000A00091818F30F7E29F07B8F388E390E0FC017D
:1000B000308188E390E021E02327FC0120838CE459
:0E00C00090E0FC0111821082E7CFF894FFCF90
:00000001FF
